:1000000059C073C072C071C070C06FC06EC078C07C
:100010006CC06BC0B4C169C068C067C066C065C051
:1000200064C063C062C061C060C05FC05EC05DC0CC
:100030005CC05BC0ABC0BBC0D1C0E1C0F1C001C1FE
:100040001FC156C165C177C3AAC3B2C3CAC3EFC338
:1000500005C42CC435C44F4B2000493F20004E3FFF
:10006000200050202000572020004C4F53542000E7
:100070004C4F53542000522049200052204E200063
:100080004520202000F300D5B2BFAFA7A3A1A0B0A8
:10009000B8BCBE000000B100CC0048909470208431
:1000A0007880408E748858507C8C9A686030648266
:1000B0006C92969811241FBECFEFD4E0DEBFCDBF67
:1000C00011E0A0E0B1E0E8E1FAE002C005900D9295
:1000D000A230B107D9F721E0A2E0B1E001C01D9242
:1000E000AE31B207E1F79DD195C48ACF449A84B569
:1000F000806284BD0895449884B58F7C84BD089542
:100100001F920F920FB60F9211242F933F934F938C
:100110005F936F937F938F939F93AF93BF93CF938F
:10012000DF93EF93FF9380910301909104019C0171
:100130002F5F3F4F30930401209303018D359105CC
:1001400078F08FEF9FEF90930601809305018091E7
:10015000030190910401019790930401809303019E
:1001600080911D0191E0980F90931D018370833061
:1001700009F0CEC0E0910001F09101013197E93022
:10018000F10508F0BFC0E65EFF4F0994C091190168
:10019000D0911A01209709F4A9DF2196D0931A0172
:1001A000C0931901CB35D10508F4B2C010C0C0917D
:1001B0001901D0911A01209709F498DF2196D09364
:1001C0001A01C0931901CF30D14008F4A1C0109298
:1001D0001A011092190183E090E096C0C0911901B4
:1001E000D0911A01209709F486DF2196D0931A0145
:1001F000C0931901CB35D10508F48AC076C0C091EF
:100200001901D0911A01209709F475DF2196D09336
:100210001A01C0931901C53BD10508F479C06FC01C
:10022000C0911901D0911A01209709F464DF219639
:10023000D0931A01C0931901CD31D24008F468C09F
:100240005EC010921A01109219012091180127FF27
:1002500003C082E090E002C081E090E09093010151
:1002600080930001220F20931801809117019FEFC6
:10027000980F9093170181114BC084E090E044C027
:10028000E0910701F09108018091160191E0980F2B
:1002900090931601E80FF11DE491E0931501E0320F
:1002A00039F410921A011092190185E090E02CC0E7
:1002B00084ED8E0F8F3230F5FF27E7FDF095E75A7A
:1002C000FF4FE4918E2F90E025E0959587952A9534
:1002D000E1F780931701863020F4EE0FEE0FEE0F5A
:1002E00002C0EE0FEE0FE093180186E090E00CC024
:1002F00002DF10921A01109219011092160187E084
:1003000090E002C089E090E09093010180930001A9
:10031000809102018823F9F080911B0190911C01CA
:10032000009711F4439A04C0803E914009F4439829
:1003300080911B0190911C018F3D2EE2920729F4C0
:1003400010921C0110921B0107C0019690931C0192
:1003500080931B0101C04398FF91EF91DF91CF91F2
:10036000BF91AF919F918F917F916F915F914F91CD
:100370003F912F910F900FBE0F901F9018951F92D5
:100380000F920FB60F9211242F933F934F938F9399
:100390009F9380918600909187002091810026FF95
:1003A00008C01092850010928400809181008F7B9C
:1003B00014C09C01215233402737354028F4109255
:1003C00004011092030102C08FEF9FEF909306018A
:1003D00080930501809181008064809381009F91CA
:1003E0008F914F913F912F910F900FBE0F901F90C3
:1003F00018958091000190910101099731F488E0EE
:1004000090E09093010180930001089589E090E0CD
:1004100090930101809300016ECE682F80E090E000
:10042000EBC200E010E0C0E0D0E05AE6252E50E03C
:10043000352E66E5662E60E0762E77E0A72EB12C8D
:10044000E2E0EE2EF12CF6E0CF2ED12CAAE58A2E9A
:10045000A0E09A2E81E0C330D10509F080E08093BE
:100460000201C230D10509F4A8C02CF4C130D10575
:1004700009F491C008C0C330D10509F4BDC0C4302F
:10048000D10509F44DC1F894A89588E228E130E03F
:100490000FB6F894A895209360000FBE809360007B
:1004A0003A9A42983B9A43983C9A4498559A5D9858
:1004B0002098289A81E084BD8AE085BD8FEF87BDB2
:1004C00082E088BD1092800080938100909181002D
:1004D0009064909381001092850010928400EFEF59
:1004E000FFEFF0930601E093050190E290936F0017
:1004F00090E19093B0008093B1001092B20099EF18
:100500009093B30080937000789480E090E06CD278
:10051000082F10E00230110524F080E07EDF00E0BB
:1005200010E0FFEF29E638E1F15020403040E1F7DC
:1005300000C000006AE070E080E090E040E050E041
:100540002091050130910601009709F4C9011216A6
:10055000130664F4F901E81BF90BCF01F7FF03C0A0
:10056000919581959109480F591FC901FFE728E32B
:1005700031E0F15020403040E1F700C00000615010
:10058000710961157105E1F64A3D574008F4A1C1B2
:10059000C4E0D0E0B3C1429A209105013091060138
:1005A000809100019091010137FF99C18930910537
:1005B00009F095C180E890E0A9C180910001909177
:1005C0000101099709F09AC184EB87BD83E088BDDA
:1005D00080910501909106018C3D95400CF07CC105
:1005E00085DDFFEF20E732E0F15020403040E1F7B9
:1005F00000C0000080DD70C10115110521F001303F
:100600001105C9F07BC18091050190910601181672
:1006100019060CF083C080910501909106018D3D73
:1006200095403CF020E730E030930801209307012B
:1006300071C1ECDE63C1809105019091060118162D
:1006400019060CF06BC020910501309106018091D4
:10065000130190911401892B21F4309314012093FC
:100660001301409113015091140167E0649FC00190
:10067000659F900D1124820F931F97FD07962C0103
:1006800043E0559447944A95E1F750921201409205
:100690001101309314012093130180910F01909167
:1006A0001001892B21F45092100140920F0180918A
:1006B0000F01909110019C012351310942165306FC
:1006C0001CF1439684159505FCF080910D019091E5
:1006D0000E019C012F5F3F4F30930E0120930D01BF
:1006E000893532E09307A8F090930E0180930D01B5
:1006F0008091000190910101099759F4309208010D
:100700002092070176DE05C010920E0110920D01B5
:100710007DDE5092100140920F01F0C077DED9C00B
:10072000E0910B01F0910C01E830F10508F0E6C012
:10073000ED5DFF4F09948091050190910601BC0188
:10074000882777FD8095982FF0D02FEF3FE54BED70
:1007500054E4E5D087FF0EC0809100019091010123
:10076000099709F0CBC088B198E0892788B986E657
:1007700090E0CCC08091090190910A0185369105E5
:1007800034F4019690930A0180930901B7C0109246
:100790000A01109209013ADE81E090E05AC0429AC3
:1007A00082E690E0909308018093070122DE79C0F1
:1007B0008091000190910101099709F09FC010926A
:1007C0000A01109209018EE590E090930801809350
:1007D00007010FDEE3E0F0E0F0930C01E0930B0182
:1007E0008DC08091000190910101099709F086C0A8
:1007F0008091090190910A019C012F5F3F4F309336
:100800000A0120930901883C910554F48091050167
:10081000909106018C3D95400CF070C080E03BC08B
:1008200024E030E030930C0120930B0167C08091ED
:10083000000190910101099709F060C010920A012E
:10084000109209019092080180920701D2DD85E0A3
:1008500090E090930C0180930B0150C080910001B7
:1008600090910101099709F049C080910901909187
:100870000A019C012F5F3F4F30930A012093090129
:10088000883C910574F480910501909106018C3D9E
:100890009540A4F581E0C1DDD0920C01C0920B011E
:1008A0002DC0F0920C01E0920B0128C0709208015B
:1008B000609207019EDDB0920C01A0920B011EC058
:1008C00080910001909101010997C1F4C0E0D0E04E
:1008D00015C0C1E0D0E012C0C3E0D0E00FC009975E
:1008E00069F401151105C1F48BE790E090930801BC
:1008F000809307017EDD4298C2E0D0E08FE19EE464
:100900000197F1F700C00000A895A4CD90930801CD
:10091000809307016EDDF2CF86E790E0E7CF40D00D
:1009200008F481E00895E89409C097FB3EF490959F
:100930008095709561957F4F8F4F9F4F9923A9F0B8
:10094000F92F96E9BB279395F69587957795679547
:10095000B795F111F8CFFAF4BB0F11F460FF1BC08B
:100960006F5F7F4F8F4F9F4F16C0882311F096E91E
:1009700011C0772321F09EE8872F762F05C06623CC
:1009800071F096E8862F70E060E02AF09A95660F85
:10099000771F881FDAF7880F9695879597F908953E
:1009A000990F0008550FAA0BE0E8FEEF1616170680
:1009B000E807F907C0F012161306E407F50798F0E8
:1009C000621B730B840B950B39F40A2661F0232B01
:1009D000242B252B21F408950A2609F4A140A6957D
:1009E0008FEF811D811D0895F999FECF92BD81BDC4
:1009F000F89A992780B50895262FF999FECF1FBA46
:100A000092BD81BD20BD0FB6F894FA9AF99A0FBE37
:080A100001960895F894FFCF50
:020A18000900D3
:00000001FF
